:100000000C94B5000C94D2000C94D2000C94D20045
:100010000C94D2000C94D2000C94D2000C94D20018
:100020000C94D2000C94D2000C94D2000C94D20008
:100030000C94D2000C94D2000C94D2000C94D200F8
:100040000C94D2000C94D2000C9480070C94D20033
:100050000C94AF070C94D2000C94D2000C94D200F4
:100060000C94D2000C94D2006E616E00696E660032
:1000700000407A10F35A00A0724E18090010A5D45F
:10008000E80000E87648170000E40B54020000CABC
:100090009A3B000000E1F505000080969800000002
:1000A00040420F000000A086010000001027000061
:1000B0000000E803000000006400000000000A00E7
:1000C000000000000100000000002C76D888DC67EA
:1000D0004F0823DFC1DFAE59E1B1B796E5E3E45342
:1000E000C63AE651997696E8E6C28426EB898C9B5F
:1000F00062ED407C6FFCEFBC9C9F40F2BAA56FA5FF
:10010000F490055A2AF75C936B6CF9676DC11BFC80
:10011000E0E40D47FEF520E6B500D0ED902E03009B
:10012000943577050080841E080000204E0A0000E8
:1001300000C80C333333330F986E12831141EF8DA7
:100140002114893BE65516CFFEE6DB18D1844B38E7
:100150001BF77C1D901DA4BBE424203284725E2218
:100160008100C9F124ECA1E53D2711241FBECFEF8A
:10017000D8E0DEBFCDBF11E0A0E0B1E0E4E4F7E1FC
:1001800002C005900D92A633B107D9F721E0A6E38E
:10019000B1E001C01D92A135B207E1F70E94510400
:1001A0000C94A00B0C940000A3E1B0E0EAEDF0E0A9
:1001B0000C9495086C014B012A01FC0117821682F0
:1001C000838181FF43C3AE014F5F5F4F3A01F60168
:1001D0009381F40193FD859193FF81914F018823D1
:1001E00009F430C3853239F493FD859193FF8191F1
:1001F0004F01853239F4B60190E00E94E70A5201BE
:100200002501E5CF10E0F12C20E02032A0F48B3264
:1002100069F030F4803259F0833269F420612CC0E7
:100220008D3239F0803339F4216026C02260246099
:1002300023C0286021C027FD27C030ED380F3A3099
:1002400078F426FF06C0FAE01F9F300D1124132F0B
:1002500013C04AE0F49E300D1124F32E20620CC02E
:100260008E3221F426FDEEC2206406C08C3611F4D5
:10027000206802C0883641F4F40193FD859193FF14
:1002800081914F018111C1CF9BEB980F933018F4EE
:100290002061805E06C09BE9980F933008F071C121
:1002A0002F7E26FF16E02F73322E853619F4206438
:1002B000322E08C0863621F4F22FF0683F2E02C09D
:1002C0001111115037FE07C01C3350F4EE24E39493
:1002D000E10E27E00BC0183038F027E017E005C02A
:1002E00027E04CE3E42E02C0212FE12C520144E030
:1002F000A40EB11CF20160817181828193810E2D67
:10030000A3010E94F9092C01098100FF02C003FF2B
:1003100007C031FC08C032FE09C030E2232E07C0FE
:100320002DE2222E04C09BE2292E01C0212C802F19
:100330008C7019F0211068C2A8C237FE0FC0E40CFF
:1003400004FF04C08A81813309F4EA941E1474F511
:10035000F8E0FE1578F588E0E82E2CC036FC2AC0BF
:10036000812F90E0841595059CF02CEF42162FEF1D
:10037000520674F0432D4068342E0AC0E2E0F0E0EB
:10038000EC0FFD1FE10FF11D8081803319F4115036
:100390001111F4CF37FE0EC0EE24E394E10E812F4D
:1003A00090E0481659062CF4141904C0EE24E39486
:1003B00001C010E037FE06C01414150434F4C20165
:1003C000019605C085E090E002C081E090E0211038
:1003D0000196112331F0212F30E02F5F3F4F820F24
:1003E000931F2F2D30E08217930714F4F81A01C0E1
:1003F000F12C832D897049F4FF2039F0B60180E299
:1004000090E00E94E70AFA94F7CF222029F0B60183
:10041000822D90E00E94E70A33FC09C0FF2039F0EA
:10042000B60180E390E00E94E70AFA94F7CF37FE26
:100430005AC0942D852D57FE02C090E080E0292EF1
:10044000382E20E030E0A2014E1951095D874C871B
:10045000A201421953095F874E87612F70E044273C
:100460005527461B570B598B488B5FEF25163506D2
:1004700049F4B6018EE290E02A8B3B8B0E94E70A9A
:100480003B892A89421453046CF04C855D854215E2
:10049000530544F4EE85FF85E20FF31FE60DF71DCB
:1004A000818101C080E351E0251A31082F5F3F4F61
:1004B00048895989241635064CF0B60190E02A8BFC
:1004C0003B8B0E94E70A2A893B89CFCF241435044D
:1004D00039F49A81963318F4953311F404FF81E3CB
:1004E000B60190E04BC08A81813309F00F7EB601DE
:1004F00090E00E94E70A111105C034FC18C085E69F
:1005000090E017C0B6018EE290E00E94E70A82E018
:10051000EE24E394E80EF301E80FF11D8081B601AB
:1005200090E00E94E70A11508E2D91F7E6CF85E406
:1005300090E0B6010E94E70A57FC05C0411451043F
:1005400039F404FF05C05194419451088DE201C073
:100550008BE2B60190E00E94E70A80E39AE0491638
:1005600051042CF08F5F5AE0451A5108F7CFB601BD
:1005700090E00E94E70AB601C201C0960E94E70A15
:1005800057C1833631F0833779F0833509F058C08D
:1005900021C05201E2E0AE0EB11CF20180818983DC
:1005A00001E010E0230114C05201F2E0AF0EB11CD3
:1005B000F2014080518026FF03C0612F70E002C02D
:1005C0006FEF7FEFC2012A8B0E94DC0A8C012A891F
:1005D0002F7715C05201F2E0AF0EB11CF20140803E
:1005E000518026FF03C0612F70E002C06FEF7FEFE4
:1005F000C2012A8B0E94D10A8C012A892068322EDE
:1006000023FD1AC08F2D90E008171907A8F4B60132
:1006100080E290E00E94E70AFA94F4CFF20137FCFE
:10062000859137FE81912F01B60190E00E94E70A83
:10063000F110FA94015011090115110579F7F8C06C
:10064000843611F0893659F5520127FF09C0F4E0CC
:10065000AF0EB11CF20160817181828193810AC069
:10066000F2E0AF0EB11CF20160817181072E000C27
:10067000880B990B2F76322E97FF09C090958095A5
:10068000709561957F4F8F4F9F4F2068322E2AE0E3
:1006900030E0A3010E94420BE82EE6183FC0022F73
:1006A000853721F40F7E2AE030E01DC0097F8F36A8
:1006B00091F018F4883559F0C5C0803719F08837A3
:1006C00011F0C0C0006104FF09C0046007C024FF2E
:1006D00008C0066006C028E030E005C020E130E038
:1006E00002C020E132E0520107FF09C0F4E0AF0E82
:1006F000B11CF201608171818281938108C0F2E0B6
:10070000AF0EB11CF2016081718180E090E0A30125
:100710000E94420BE82EE6180F77302E36FE0BC0F3
:10072000332D3E7FE11650F434FE0AC032FC08C07F
:10073000332D3E7E05C00E2D332D03C00E2D01C07E
:10074000012F34FF0CC0FE01EE0DF11D80818033BE
:1007500011F4397E08C032FF05C00E5F04C0832F3C
:10076000867809F00F5F33FD13C030FF06C01E2DE1
:100770000F1518F41F0D101B0F2D0F1568F4B6017F
:1007800080E290E03B8B0E94E70A0F5F3B89F5CF48
:100790000F1510F4F01A01C0F12C34FF12C0B6018D
:1007A00080E390E03B8B0E94E70A3B8932FF17C051
:1007B00031FD03C088E790E002C088E590E0B60113
:1007C0000CC0832F867859F031FF02C08BE201C044
:1007D00080E237FD8DE2B60190E00E94E70AE11663
:1007E00038F4B60180E390E00E94E70A1150F7CF99
:1007F000EA94F301EE0DF11D8081B60190E00E94B4
:10080000E70AE110F5CF14C0F4E0FF1558F584E0D5
:10081000F81A33FE1EC0211026C003FF2AC008E6C6
:1008200010E0F32DF0713F2EF8018491811124C066
:10083000FF2009F4E5CCB60180E290E00E94E70ACF
:10084000FA94F6CFF6018681978126C08FEF9FEF4D
:1008500023C0B60180E290E00E94E70AFA94F1100A
:10086000F8CFD9CFF12CB601822D90E00E94E70A93
:10087000D4CF0CE610E0D5CF31108052B60190E015
:100880000E94E70A0F5F1F4FCFCF23E02F1510F410
:1008900083E0BECFF12CC1CF6396E2E10C94B108A6
:1008A000089580E594E00E94520587E091E00E945F
:1008B000B3052FEF39E688E1215030408040E1F761
:1008C00000C000000E94570840E060E080E00E9405
:1008D00061080E946E058335E1F70E946E05C82FFE
:1008E000D0E00E946E059E01382BC9010E94E207EC
:1008F0000E946E05C82F0E946E05D82F0E946E05BB
:10090000482F6D2F8C2F0E946108E3CF0F931F9308
:10091000CF93DF93EC018B01CB010E94CC0899832C
:100920008883009779F09B838A839D838C839801C9
:1009300021503109820F931F9F838E831986188659
:100940001B870A87DF91CF911F910F910895FC01BA
:100950008FB78078F1F0F8944085518522853385F2
:100960004217530721F5789480E008952081318162
:1009700033832283208531852F5F3F4F3187208746
:10098000882319F0789481E0089581E0089580E04B
:100990000895408551852285338542175307E9F430
:1009A000F6CF80859185019691878087EBCFA281D4
:1009B000B3816C93228133812F5F3F4F3383228336
:1009C000468157814217530788F2EBCF8085918586
:1009D00001969187808781E00895A281B3816C930D
:1009E000228133812F5F3F4F33832283468157819A
:1009F0004217530708F4BACFE9CFFC0180859185EF
:100A00000097D9F00FB607FE1CC0F8948085918539
:100A1000019791878087A481B5818C91DB018C93AC
:100A20008481958101969583848326813781281757
:100A30003907F8F0789481E0089580E0089581E026
:100A40000895019791878087A481B5818C91DB01FE
:100A50008C93848195810196958384832681378147
:100A60002817390760F7808191819583848381E01D
:100A700008958081918195838483DCCFFC018285F8
:100A8000938520853185821B930B0895FC01808519
:100A900091850895FC01808591850E948108CB0194
:100AA000089508951092C50027E62093C40028E514
:100AB0002093C1002EE02093C200909347018093C1
:100AC00046011092490160E074E08AE391E00E94DF
:100AD000860478940895809149010895F894E0EC93
:100AE000F0E080818823ECF778948091C600089527
:100AF000CF93DF93EC01F8940E946E0588830E94E7
:100B00006E0589830E946E058A830E946E058B8321
:100B10007894DF91CF910895F894E0ECF0E0908123
:100B200095FFFDCF8093C600789408958091490188
:100B3000811112C0E0ECF0E0808185FFFDCF6AE416
:100B400071E08AE391E00E94FD0480914A01809364
:100B5000C60081E0809349010895682F8AE391E0FF
:100B60000E94A7040895CF93DF93EC018881882326
:100B700031F021960E94AD0589918111FBCF0E9431
:100B80009605DF91CF9108950F931F93CF93DF9335
:100B9000662371F0EC016150062F10E00F5F1F4FCC
:100BA000080F191F89910E94AD05C017D107D1F711
:100BB0000E949605DF91CF911F910F910895682FA4
:100BC0008AE391E00E94A704882349F080914901BB
:100BD000811102C00E94960581E080934901089529
:100BE0008DE00E94DF058AE00E94DF0508950E94E3
:100BF000B3050E94F00508950E94DF0508950E9444
:100C0000DF0508950F931F93CF93DF9300D01F92BA
:100C1000CDB7DEB71F928F9383E191E09F938F93BF
:100C20008E010F5F1F4F1F930F930E941F0BC80170
:100C30000E94B3050F900F900F900F900F900F90A0
:100C40000F900F900F90DF91CF911F910F9108950A
:100C50000F931F93CF93DF9300D000D0CDB7DEB7B3
:100C60001F928F9388E191E09F938F938E010F5F86
:100C70001F4F1F930F930E941F0BC8010E94B305C3
:100C80000F900F900F900F900F900F900F900F906C
:100C90000F900F90DF91CF911F910F9108950F93B7
:100CA0001F93CF93DF93CDB7DEB764970FB6F89459
:100CB000DEBF0FBECDBF9F938F938BE191E09F93DB
:100CC0008F938E010F5F1F4F1F930F930E941F0B77
:100CD000C8010E94B3050F900F900F900F900F90D6
:100CE0000F9064960FB6F894DEBF0FBECDBFDF91B4
:100CF000CF911F910F9108950F931F93CF93DF937F
:100D0000CDB7DEB764970FB6F894DEBF0FBECDBF88
:100D10009F938F937F936F938EE191E09F938F9337
:100D20008E010F5F1F4F1F930F930E941F0BC8016F
:100D30000E94B3050FB6F894DEBF0FBECDBF649618
:100D40000FB6F894DEBF0FBECDBFDF91CF911F91DC
:100D50000F9108950F931F93CF93DF93CDB7DEB715
:100D60002A970FB6F894DEBF0FBECDBF9F938F9327
:100D700082E291E09F938F938E010F5F1F4F1F932D
:100D80000F930E941F0BC8010E94B3050F900F9094
:100D90000F900F900F900F902A960FB6F894DEBF29
:100DA0000FBECDBFDF91CF911F910F9108950F938B
:100DB0001F93CF93DF93CDB7DEB72A970FB6F89482
:100DC000DEBF0FBECDBF9F938F937F936F9387E25C
:100DD00091E09F938F938E010F5F1F4F1F930F938F
:100DE0000E941F0BC8010E94B3050FB6F894DEBF26
:100DF0000FBECDBF2A960FB6F894DEBF0FBECDBF93
:100E0000DF91CF911F910F910895CF92DF92EF92D2
:100E1000FF920F931F93CF93DF936B017C01C42F3D
:100E20008DE291E00E94B305D0E02197F2F001E05D
:100E300010E0C8010C2E02C0880F991F0A94E2F737
:100E4000092E000CAA0BBB0B8C219D21AE21BF21CA
:100E5000892B8A2B8B2B21F081E30E94DF0503C0B5
:100E600080E30E94DF05219720F7DF91CF911F914A
:100E70000F91FF90EF90DF90CF900895682F70E072
:100E800080E090E048E00E940507089540E20E945B
:100E900005070895682F70E080E090E044E00E942C
:100EA000050708950F931F93CF93DF93CDB7DEB758
:100EB0002A970FB6F894DEBF0FBECDBF9F938F93D6
:100EC0007F936F9380E391E09F938F938E010F5FE9
:100ED0001F4F1F930F930E941F0BC8010E94B30561
:100EE0000FB6F894DEBF0FBECDBF2A960FB6F894AA
:100EF000DEBF0FBECDBFDF91CF911F910F9108953F
:100F00001F920F920FB60F9211242F933F934F937E
:100F10005F936F937F938F939F93AF93BF93EF9361
:100F2000FF93F8948091C600809348018091480116
:100F3000E0914601F091470109957894FF91EF9176
:100F4000BF91AF919F918F917F916F915F914F91E1
:100F50003F912F910F900FBE0F901F9018951F92E9
:100F60000F920FB60F9211242F933F934F935F93DD
:100F70006F937F938F939F93AF93BF93EF93FF9361
:100F8000F8946AE471E08AE391E00E94FD0488230A
:100F900029F080914A018093C60002C01092490155
:100FA0007894FF91EF91BF91AF919F918F917F9135
:100FB0006F915F914F913F912F910F900FBE0F90C6
:100FC0001F9018958093060180914B0190914C01E0
:100FD000009711F00E9461098091060190E09C0148
:100FE000220F331F820F931F0E94CC0890934C0155
:100FF00080934B0108951F93CF93DF93CDB7DEB756
:1010000027970FB6F894DEBF0FBECDBF80914B017E
:1010100090914C01892B09F440C087EC90E0019736
:10102000F1F700C00000F8948091060190E09C0167
:10103000220F331F820F931F9A838983E0914B0104
:10104000F0914C0181918B8388B181608C8388B150
:101050008E7F8D838D818E8388E08F835C811B8161
:101060002F813E814D8169817A81A8E2B0E0CB0178
:101070005C9317FD352F2A953C93342F39F0111FBF
:1010800000C000004C93000000C0F2CF28E0119196
:101090004C930000019761F7789427960FB6F89467
:1010A000DEBF0FBECDBFDF91CF911F910895389A5B
:1010B000409A8091060190E00E94E2070E94FB079F
:1010C0000895CF93DF93E0914B01F0914C01909103
:1010D0000601992389F03296A0E0B0E0EF01229753
:1010E0006883219688834083119633962091060168
:1010F00030E0A217B30794F30E94FB07DF91CF9172
:101100000895AA1BBB1B51E107C0AA1FBB1FA6174E
:10111000B70710F0A61BB70B881F991F5A95A9F7A0
:1011200080959095BC01CD0108952F923F924F92EA
:101130005F926F927F928F929F92AF92BF92CF9267
:10114000DF92EF92FF920F931F93CF93DF93CDB770
:10115000DEB7CA1BDB0B0FB6F894DEBF0FBECDBFE8
:1011600009942A88398848885F846E847D848C84B9
:101170009B84AA84B984C884DF80EE80FD800C81C2
:101180001B81AA81B981CE0FD11D0FB6F894DEBFA5
:101190000FBECDBFED010895CF93DF93823091054F
:1011A00010F482E090E0E0914F01F091500120E0D6
:1011B00030E0C0E0D0E0309711F140815181481714
:1011C0005907C0F04817590761F48281938120972D
:1011D00019F09B838A832BC09093500180934F0119
:1011E00026C02115310519F04217530718F49A014A
:1011F000BE01DF01EF010280F381E02DDCCF21157C
:10120000310509F1281B390B2430310590F4129671
:101210008D919C9113976115710521F0FB019383CA
:10122000828304C09093500180934F01FD01329658
:1012300044C0FD01E20FF31F8193919322503109C5
:101240002D933C933AC020914D0130914E01232BB8
:1012500041F4209102013091030130934E0120931B
:101260004D0120910001309101012115310541F41A
:101270002DB73EB74091040150910501241B350B59
:10128000E0914D01F0914E01E217F307A0F42E1BFF
:101290003F0B2817390778F0AC014E5F5F4F2417DA
:1012A000350748F04E0F5F1F50934E0140934D019C
:1012B0008193919302C0E0E0F0E0CF01DF91CF9104
:1012C00008950F931F93CF93DF93009709F48CC079
:1012D000FC0132971382128200914F01109150014C
:1012E0000115110581F420813181820F931F209116
:1012F0004D0130914E012817390779F5F0934E01D1
:10130000E0934D0171C0D80140E050E0AE17BF0737
:1013100050F412962D913C911397AD012115310592
:1013200009F1D901F3CF9D01DA0133832283608172
:101330007181860F971F8217930769F4EC0128814A
:101340003981260F371F2E5F3F4F318320838A81DB
:101350009B8193838283452B29F4F0935001E09382
:101360004F0142C01396FC93EE931297ED01499101
:1013700059919E01240F351FE217F30771F4808104
:101380009181840F951F029611969C938E93828172
:10139000938113969C938E931297E0E0F0E0D8012E
:1013A00012968D919C911397009719F0F8018C017A
:1013B000F6CF8D919C9198012E5F3F4F820F931F26
:1013C00020914D0130914E012817390769F430976B
:1013D00029F41092500110924F0102C01382128220
:1013E00010934E0100934D01DF91CF911F910F910A
:1013F0000895283008F027E03327DA01990F311DCE
:1014000087FD916000966105710539F432602E5FA9
:101410003D9330E32A95E1F708959F3F30F08038FF
:101420007105610509F03C5F3C5F3D93913008F028
:101430008068911DDF93CF931F930F93FF92EF92DC
:10144000192F987F9695E92F96959695E90FFF2786
:10145000E653FF4F99273327EE24FF24A701E70126
:1014600005900894079428F4360FE71EF81E491FCC
:10147000511D660F771F881F991F0694A1F70590CD
:10148000079428F4E70EF81E491F561FC11D770F59
:10149000881F991F661F0694A1F70590079428F4EA
:1014A000F80E491F561FC71FD11D880F991F661FB1
:1014B000771F0694A1F70590079420F4490F561F53
:1014C000C71FD81F990F661F771F881F0694A9F79B
:1014D00084911095177041F0D695C795579547950B
:1014E000F794E7941A95C1F7E0E7F0E06894159057
:1014F000159135916591959105907FE27395E1186D
:10150000F10A430B560BC90BD009C0F7E10CF11ED1
:10151000431F561FC91FD01D7EF4703311F48A95E6
:10152000E6CFE894015030F0080F0AF400270217C4
:1015300008F4202F2395022F7A3328F079E37D9346
:101540002A95E9F710C07D932A9589F60694979518
:101550006795379517951794E118F10A430B560BC9
:10156000C90BD00998F023957E9173957A3308F0D2
:1015700070E37C932013B8F77E9170617D9330F017
:10158000839571E37D9370E32A95E1F71124EF9041
:10159000FF900F911F91CF91DF91992787FD909533
:1015A0000895FC010590615070400110D8F78095B6
:1015B00090958E0F9F1F0895FC016150704001901F
:1015C0000110D8F7809590958E0F9F1F08950F9367
:1015D0001F93CF93DF93FB01238121FD03C08FEF86
:1015E0009FEF28C022FF16C0468157812481358194
:1015F0004217530744F4A081B1819D012F5F3F4FF3
:10160000318320838C93268137812F5F3F4F37832F
:10161000268310C0EB01092F182F0084F185E02DDF
:101620000995892BE1F68E819F8101969F838E8398
:10163000812F902FDF91CF911F910F910895AEE0F0
:10164000B0E0E5E2FBE00C94A3080D891E8986E07A
:101650008C831A8309838FEF9FE79E838D83AE016E
:10166000475E5F4F6F89788DCE0101960E94D4004E
:101670002F813885F801E20FF31F10822E96E4E0E7
:101680000C94BF08FA01AA27283051F1203181F1CA
:10169000E8946F936E7F6E5F7F4F8F4F9F4FAF4F7A
:1016A000B1E03ED0B4E03CD0670F781F891F9A1F8D
:1016B000A11D680F791F8A1F911DA11D6A0F711D41
:1016C000811D911DA11D20D009F468943F912AE04D
:1016D000269F11243019305D3193DEF6CF01089535
:1016E000462F4770405D4193B3E00FD0C9F7F6CF66
:1016F000462F4F70405D4A3318F0495D31FD40522E
:10170000419302D0A9F7EACFB4E0A69597958795C3
:1017100077956795BA95C9F70097610571050895A2
:101720009B01AC010A2E069457954795379527954E
:10173000BA95C9F7620F731F841F951FA01D0895E6
:04174000F894FFCF4B
:10174400000051012000145374617274696E672E95
:101754002E2E002530325800256400257500256C96
:10176400750025303458002530386C58003062003C
:06177400252E3266000084
:00000001FF
